{
  "contractName": "GasPrice",
  "abi": [
    {
      "constant": true,
      "inputs": [],
      "name": "gasPriceUSD",
      "outputs": [
        {
          "name": "",
          "type": "uint256"
        }
      ],
      "payable": false,
      "stateMutability": "view",
      "type": "function"
    },
    {
      "inputs": [],
      "payable": false,
      "stateMutability": "nonpayable",
      "type": "constructor"
    },
    {
      "anonymous": false,
      "inputs": [
        {
          "indexed": false,
          "name": "price",
          "type": "string"
        }
      ],
      "name": "LogNewGasPrice",
      "type": "event"
    },
    {
      "anonymous": false,
      "inputs": [
        {
          "indexed": false,
          "name": "description",
          "type": "string"
        }
      ],
      "name": "LogNewProvableQuery",
      "type": "event"
    },
    {
      "constant": false,
      "inputs": [
        {
          "name": "_myid",
          "type": "bytes32"
        },
        {
          "name": "_result",
          "type": "string"
        }
      ],
      "name": "__callback",
      "outputs": [],
      "payable": false,
      "stateMutability": "nonpayable",
      "type": "function"
    },
    {
      "constant": false,
      "inputs": [
        {
          "name": "_myid",
          "type": "bytes32"
        },
        {
          "name": "_result",
          "type": "string"
        },
        {
          "name": "_proof",
          "type": "bytes"
        }
      ],
      "name": "__callback",
      "outputs": [],
      "payable": false,
      "stateMutability": "nonpayable",
      "type": "function"
    },
    {
      "constant": false,
      "inputs": [],
      "name": "update",
      "outputs": [],
      "payable": true,
      "stateMutability": "payable",
      "type": "function"
    },
    {
      "constant": false,
      "inputs": [],
      "name": "resetToZero",
      "outputs": [],
      "payable": true,
      "stateMutability": "payable",
      "type": "function"
    }
  ],
  "bytecode": "0x60806040523480156200001157600080fd5b50620000226200002860201b60201c565b62000d05565b7fc4dc360d0a9c0677a3379ae0a3d81e887f761e65fdf3d7e00859d1bcd3c4738960405180806020018281038252602e815260200180620021ee602e913960400191505060405180910390a1620000d46040518060400160405280600381526020017f55524c00000000000000000000000000000000000000000000000000000000008152506040518060800160405280604681526020016200221c60469139620000d760201b60201c565b50565b60008073ffffffffffffffffffffffffffffffffffffffff16600160009054906101000a900473ffffffffffffffffffffffffffffffffffffffff1673ffffffffffffffffffffffffffffffffffffffff161480620001685750600062000166600160009054906101000a900473ffffffffffffffffffffffffffffffffffffffff166200064760201b60201c565b145b1562000182576200018060006200065260201b60201c565b505b600160009054906101000a900473ffffffffffffffffffffffffffffffffffffffff1673ffffffffffffffffffffffffffffffffffffffff166338cc48316040518163ffffffff1660e01b8152600401602060405180830381600087803b158015620001ed57600080fd5b505af115801562000202573d6000803e3d6000fd5b505050506040513d60208110156200021957600080fd5b810190808051906020019092919050505073ffffffffffffffffffffffffffffffffffffffff166000809054906101000a900473ffffffffffffffffffffffffffffffffffffffff1673ffffffffffffffffffffffffffffffffffffffff16146200036657600160009054906101000a900473ffffffffffffffffffffffffffffffffffffffff1673ffffffffffffffffffffffffffffffffffffffff166338cc48316040518163ffffffff1660e01b8152600401602060405180830381600087803b158015620002e957600080fd5b505af1158015620002fe573d6000803e3d6000fd5b505050506040513d60208110156200031557600080fd5b81019080805190602001909291905050506000806101000a81548173ffffffffffffffffffffffffffffffffffffffff021916908373ffffffffffffffffffffffffffffffffffffffff1602179055505b60008060009054906101000a900473ffffffffffffffffffffffffffffffffffffffff1673ffffffffffffffffffffffffffffffffffffffff1663524f3889856040518263ffffffff1660e01b81526004018080602001828103825283818151815260200191508051906020019080838360005b83811015620003f7578082015181840152602081019050620003da565b50505050905090810190601f168015620004255780820380516001836020036101000a031916815260200191505b5092505050602060405180830381600087803b1580156200044557600080fd5b505af11580156200045a573d6000803e3d6000fd5b505050506040513d60208110156200047157600080fd5b8101908080519060200190929190505050905062030d403a02670de0b6b3a764000001811115620004a9576000801b91505062000641565b6000809054906101000a900473ffffffffffffffffffffffffffffffffffffffff1673ffffffffffffffffffffffffffffffffffffffff1663adf59f9982600087876040518563ffffffff1660e01b8152600401808481526020018060200180602001838103835285818151815260200191508051906020019080838360005b838110156200054657808201518184015260208101905062000529565b50505050905090810190601f168015620005745780820380516001836020036101000a031916815260200191505b50838103825284818151815260200191508051906020019080838360005b83811015620005af57808201518184015260208101905062000592565b50505050905090810190601f168015620005dd5780820380516001836020036101000a031916815260200191505b50955050505050506020604051808303818588803b158015620005ff57600080fd5b505af115801562000614573d6000803e3d6000fd5b50505050506040513d60208110156200062c57600080fd5b81019080805190602001909291905050509150505b92915050565b6000813b9050919050565b6000620006646200066b60201b60201c565b9050919050565b60008062000693731d3b2638a7cc9f2cb3d298a3da7a90b67e5506ed6200064760201b60201c565b11156200073f57731d3b2638a7cc9f2cb3d298a3da7a90b67e5506ed600160006101000a81548173ffffffffffffffffffffffffffffffffffffffff021916908373ffffffffffffffffffffffffffffffffffffffff160217905550620007356040518060400160405280600b81526020017f6574685f6d61696e6e657400000000000000000000000000000000000000000081525062000c3a60201b60201c565b6001905062000c37565b60006200076673c03a2615d5efaf5f49f60b7bb6583eaec212fdf16200064760201b60201c565b1115620008125773c03a2615d5efaf5f49f60b7bb6583eaec212fdf1600160006101000a81548173ffffffffffffffffffffffffffffffffffffffff021916908373ffffffffffffffffffffffffffffffffffffffff160217905550620008086040518060400160405280600c81526020017f6574685f726f707374656e33000000000000000000000000000000000000000081525062000c3a60201b60201c565b6001905062000c37565b60006200083973b7a07bcf2ba2f2703b24c0691b5278999c59ac7e6200064760201b60201c565b1115620008e55773b7a07bcf2ba2f2703b24c0691b5278999c59ac7e600160006101000a81548173ffffffffffffffffffffffffffffffffffffffff021916908373ffffffffffffffffffffffffffffffffffffffff160217905550620008db6040518060400160405280600981526020017f6574685f6b6f76616e000000000000000000000000000000000000000000000081525062000c3a60201b60201c565b6001905062000c37565b60006200090c73146500cfd35b22e4a392fe0adc06de1a1368ed486200064760201b60201c565b1115620009b85773146500cfd35b22e4a392fe0adc06de1a1368ed48600160006101000a81548173ffffffffffffffffffffffffffffffffffffffff021916908373ffffffffffffffffffffffffffffffffffffffff160217905550620009ae6040518060400160405280600b81526020017f6574685f72696e6b65627900000000000000000000000000000000000000000081525062000c3a60201b60201c565b6001905062000c37565b6000620009df73a2998efd205fb9d4b4963afb70778d6354ad3a416200064760201b60201c565b111562000a8b5773a2998efd205fb9d4b4963afb70778d6354ad3a41600160006101000a81548173ffffffffffffffffffffffffffffffffffffffff021916908373ffffffffffffffffffffffffffffffffffffffff16021790555062000a816040518060400160405280600a81526020017f6574685f676f65726c690000000000000000000000000000000000000000000081525062000c3a60201b60201c565b6001905062000c37565b600062000ab2736f485c8bf6fc43ea212e93bbf8ce046c7f1cb4756200064760201b60201c565b111562000b1857736f485c8bf6fc43ea212e93bbf8ce046c7f1cb475600160006101000a81548173ffffffffffffffffffffffffffffffffffffffff021916908373ffffffffffffffffffffffffffffffffffffffff1602179055506001905062000c37565b600062000b3f7320e12a1f859b3feae5fb2a0a32c18f5a65555bbf6200064760201b60201c565b111562000ba5577320e12a1f859b3feae5fb2a0a32c18f5a65555bbf600160006101000a81548173ffffffffffffffffffffffffffffffffffffffff021916908373ffffffffffffffffffffffffffffffffffffffff1602179055506001905062000c37565b600062000bcc7351efaf4c8b3c9afbd5ab9f4bbc82784ab6ef8faa6200064760201b60201c565b111562000c32577351efaf4c8b3c9afbd5ab9f4bbc82784ab6ef8faa600160006101000a81548173ffffffffffffffffffffffffffffffffffffffff021916908373ffffffffffffffffffffffffffffffffffffffff1602179055506001905062000c37565b600090505b90565b806002908051906020019062000c5292919062000c56565b5050565b828054600181600116156101000203166002900490600052602060002090601f016020900481019282601f1062000c9957805160ff191683800117855562000cca565b8280016001018555821562000cca579182015b8281111562000cc957825182559160200191906001019062000cac565b5b50905062000cd9919062000cdd565b5090565b62000d0291905b8082111562000cfe57600081600090555060010162000ce4565b5090565b90565b6114d98062000d156000396000f3fe60806040526004361061004a5760003560e01c806327dc297e1461004f57806338bbfa5014610121578063a2e620451461028a578063a37ac1e814610294578063be46e4251461029e575b600080fd5b34801561005b57600080fd5b5061011f6004803603604081101561007257600080fd5b81019080803590602001909291908035906020019064010000000081111561009957600080fd5b8201836020820111156100ab57600080fd5b803590602001918460018302840111640100000000831117156100cd57600080fd5b91908080601f016020809104026020016040519081016040528093929190818152602001838380828437600081840152601f19601f8201169050808301925050505050505091929192905050506102c9565b005b34801561012d57600080fd5b506102886004803603606081101561014457600080fd5b81019080803590602001909291908035906020019064010000000081111561016b57600080fd5b82018360208201111561017d57600080fd5b8035906020019184600183028401116401000000008311171561019f57600080fd5b91908080601f016020809104026020016040519081016040528093929190818152602001838380828437600081840152601f19601f8201169050808301925050505050505091929192908035906020019064010000000081111561020257600080fd5b82018360208201111561021457600080fd5b8035906020019184600183028401116401000000008311171561023657600080fd5b91908080601f016020809104026020016040519081016040528093929190818152602001838380828437600081840152601f19601f8201169050808301925050505050505091929192905050506103b9565b005b6102926103dc565b005b61029c610481565b005b3480156102aa57600080fd5b506102b361048b565b6040518082815260200191505060405180910390f35b6102d1610491565b73ffffffffffffffffffffffffffffffffffffffff163373ffffffffffffffffffffffffffffffffffffffff161461030857600080fd5b7f287a7e574923995170e64f00e73f071c03b592d2f2cd69b0d7b706fb3b1699c6816040518080602001828103825283818151815260200191508051906020019080838360005b8381101561036a57808201518184015260208101905061034f565b50505050905090810190601f1680156103975780820380516001836020036101000a031916815260200191505b509250505060405180910390a16103af8160026107ae565b6005819055505050565b6000801b600360008060001b815260200190815260200160002081905550505050565b7fc4dc360d0a9c0677a3379ae0a3d81e887f761e65fdf3d7e00859d1bcd3c4738960405180806020018281038252602e81526020018061143a602e913960400191505060405180910390a161047e6040518060400160405280600381526020017f55524c0000000000000000000000000000000000000000000000000000000000815250604051806080016040528060468152602001611468604691396108c1565b50565b6000600581905550565b60055481565b60008073ffffffffffffffffffffffffffffffffffffffff16600160009054906101000a900473ffffffffffffffffffffffffffffffffffffffff1673ffffffffffffffffffffffffffffffffffffffff16148061051957506000610517600160009054906101000a900473ffffffffffffffffffffffffffffffffffffffff16610e07565b145b1561052a576105286000610e12565b505b600160009054906101000a900473ffffffffffffffffffffffffffffffffffffffff1673ffffffffffffffffffffffffffffffffffffffff166338cc48316040518163ffffffff1660e01b8152600401602060405180830381600087803b15801561059457600080fd5b505af11580156105a8573d6000803e3d6000fd5b505050506040513d60208110156105be57600080fd5b810190808051906020019092919050505073ffffffffffffffffffffffffffffffffffffffff166000809054906101000a900473ffffffffffffffffffffffffffffffffffffffff1673ffffffffffffffffffffffffffffffffffffffff161461070757600160009054906101000a900473ffffffffffffffffffffffffffffffffffffffff1673ffffffffffffffffffffffffffffffffffffffff166338cc48316040518163ffffffff1660e01b8152600401602060405180830381600087803b15801561068c57600080fd5b505af11580156106a0573d6000803e3d6000fd5b505050506040513d60208110156106b657600080fd5b81019080805190602001909291905050506000806101000a81548173ffffffffffffffffffffffffffffffffffffffff021916908373ffffffffffffffffffffffffffffffffffffffff1602179055505b6000809054906101000a900473ffffffffffffffffffffffffffffffffffffffff1673ffffffffffffffffffffffffffffffffffffffff1663c281d19e6040518163ffffffff1660e01b815260040160206040518083038186803b15801561076e57600080fd5b505afa158015610782573d6000803e3d6000fd5b505050506040513d602081101561079857600080fd5b8101908080519060200190929190505050905090565b600060608390506000809050600080905060008090505b83518110156108a25760308482815181106107dc57fe5b602001015160f81c60f81b60f81c60ff16101580156108185750603984828151811061080457fe5b602001015160f81c60f81b60f81c60ff1611155b1561086a57811561083b576000861415610831576108a2565b8580600190039650505b600a83029250603084828151811061084f57fe5b602001015160f81c60f81b60f81c60ff160383019250610895565b602e84828151811061087857fe5b602001015160f81c60f81b60f81c60ff16141561089457600191505b5b80806001019150506107c5565b5060008511156108b55784600a0a820291505b81935050505092915050565b60008073ffffffffffffffffffffffffffffffffffffffff16600160009054906101000a900473ffffffffffffffffffffffffffffffffffffffff1673ffffffffffffffffffffffffffffffffffffffff16148061094957506000610947600160009054906101000a900473ffffffffffffffffffffffffffffffffffffffff16610e07565b145b1561095a576109586000610e12565b505b600160009054906101000a900473ffffffffffffffffffffffffffffffffffffffff1673ffffffffffffffffffffffffffffffffffffffff166338cc48316040518163ffffffff1660e01b8152600401602060405180830381600087803b1580156109c457600080fd5b505af11580156109d8573d6000803e3d6000fd5b505050506040513d60208110156109ee57600080fd5b810190808051906020019092919050505073ffffffffffffffffffffffffffffffffffffffff166000809054906101000a900473ffffffffffffffffffffffffffffffffffffffff1673ffffffffffffffffffffffffffffffffffffffff1614610b3757600160009054906101000a900473ffffffffffffffffffffffffffffffffffffffff1673ffffffffffffffffffffffffffffffffffffffff166338cc48316040518163ffffffff1660e01b8152600401602060405180830381600087803b158015610abc57600080fd5b505af1158015610ad0573d6000803e3d6000fd5b505050506040513d6020811015610ae657600080fd5b81019080805190602001909291905050506000806101000a81548173ffffffffffffffffffffffffffffffffffffffff021916908373ffffffffffffffffffffffffffffffffffffffff1602179055505b60008060009054906101000a900473ffffffffffffffffffffffffffffffffffffffff1673ffffffffffffffffffffffffffffffffffffffff1663524f3889856040518263ffffffff1660e01b81526004018080602001828103825283818151815260200191508051906020019080838360005b83811015610bc6578082015181840152602081019050610bab565b50505050905090810190601f168015610bf35780820380516001836020036101000a031916815260200191505b5092505050602060405180830381600087803b158015610c1257600080fd5b505af1158015610c26573d6000803e3d6000fd5b505050506040513d6020811015610c3c57600080fd5b8101908080519060200190929190505050905062030d403a02670de0b6b3a764000001811115610c72576000801b915050610e01565b6000809054906101000a900473ffffffffffffffffffffffffffffffffffffffff1673ffffffffffffffffffffffffffffffffffffffff1663adf59f9982600087876040518563ffffffff1660e01b8152600401808481526020018060200180602001838103835285818151815260200191508051906020019080838360005b83811015610d0d578082015181840152602081019050610cf2565b50505050905090810190601f168015610d3a5780820380516001836020036101000a031916815260200191505b50838103825284818151815260200191508051906020019080838360005b83811015610d73578082015181840152602081019050610d58565b50505050905090810190601f168015610da05780820380516001836020036101000a031916815260200191505b50955050505050506020604051808303818588803b158015610dc157600080fd5b505af1158015610dd5573d6000803e3d6000fd5b50505050506040513d6020811015610dec57600080fd5b81019080805190602001909291905050509150505b92915050565b6000813b9050919050565b6000610e1c610e23565b9050919050565b600080610e43731d3b2638a7cc9f2cb3d298a3da7a90b67e5506ed610e07565b1115610ee557731d3b2638a7cc9f2cb3d298a3da7a90b67e5506ed600160006101000a81548173ffffffffffffffffffffffffffffffffffffffff021916908373ffffffffffffffffffffffffffffffffffffffff160217905550610edc6040518060400160405280600b81526020017f6574685f6d61696e6e657400000000000000000000000000000000000000000081525061137a565b60019050611377565b6000610f0473c03a2615d5efaf5f49f60b7bb6583eaec212fdf1610e07565b1115610fa65773c03a2615d5efaf5f49f60b7bb6583eaec212fdf1600160006101000a81548173ffffffffffffffffffffffffffffffffffffffff021916908373ffffffffffffffffffffffffffffffffffffffff160217905550610f9d6040518060400160405280600c81526020017f6574685f726f707374656e33000000000000000000000000000000000000000081525061137a565b60019050611377565b6000610fc573b7a07bcf2ba2f2703b24c0691b5278999c59ac7e610e07565b11156110675773b7a07bcf2ba2f2703b24c0691b5278999c59ac7e600160006101000a81548173ffffffffffffffffffffffffffffffffffffffff021916908373ffffffffffffffffffffffffffffffffffffffff16021790555061105e6040518060400160405280600981526020017f6574685f6b6f76616e000000000000000000000000000000000000000000000081525061137a565b60019050611377565b600061108673146500cfd35b22e4a392fe0adc06de1a1368ed48610e07565b11156111285773146500cfd35b22e4a392fe0adc06de1a1368ed48600160006101000a81548173ffffffffffffffffffffffffffffffffffffffff021916908373ffffffffffffffffffffffffffffffffffffffff16021790555061111f6040518060400160405280600b81526020017f6574685f72696e6b65627900000000000000000000000000000000000000000081525061137a565b60019050611377565b600061114773a2998efd205fb9d4b4963afb70778d6354ad3a41610e07565b11156111e95773a2998efd205fb9d4b4963afb70778d6354ad3a41600160006101000a81548173ffffffffffffffffffffffffffffffffffffffff021916908373ffffffffffffffffffffffffffffffffffffffff1602179055506111e06040518060400160405280600a81526020017f6574685f676f65726c690000000000000000000000000000000000000000000081525061137a565b60019050611377565b6000611208736f485c8bf6fc43ea212e93bbf8ce046c7f1cb475610e07565b111561126c57736f485c8bf6fc43ea212e93bbf8ce046c7f1cb475600160006101000a81548173ffffffffffffffffffffffffffffffffffffffff021916908373ffffffffffffffffffffffffffffffffffffffff16021790555060019050611377565b600061128b7320e12a1f859b3feae5fb2a0a32c18f5a65555bbf610e07565b11156112ef577320e12a1f859b3feae5fb2a0a32c18f5a65555bbf600160006101000a81548173ffffffffffffffffffffffffffffffffffffffff021916908373ffffffffffffffffffffffffffffffffffffffff16021790555060019050611377565b600061130e7351efaf4c8b3c9afbd5ab9f4bbc82784ab6ef8faa610e07565b1115611372577351efaf4c8b3c9afbd5ab9f4bbc82784ab6ef8faa600160006101000a81548173ffffffffffffffffffffffffffffffffffffffff021916908373ffffffffffffffffffffffffffffffffffffffff16021790555060019050611377565b600090505b90565b8060029080519060200190611390929190611394565b5050565b828054600181600116156101000203166002900490600052602060002090601f016020900481019282601f106113d557805160ff1916838001178555611403565b82800160010185558215611403579182015b828111156114025782518255916020019190600101906113e7565b5b5090506114109190611414565b5090565b61143691905b8082111561143257600081600090555060010161141a565b5090565b9056fe50726f7661626c65207175657279207761732073656e742c2077616974696e6720666f7220616e737765722e2e2e786d6c2868747470733a2f2f7777772e6675656c65636f6e6f6d792e676f762f77732f726573742f6675656c707269636573292e6675656c5072696365732e726567756c6172a165627a7a7230582041bbd559f75350b3ed2c96ef30829f4eee3611fa1c8d012336f02a70a307ccd1002950726f7661626c65207175657279207761732073656e742c2077616974696e6720666f7220616e737765722e2e2e786d6c2868747470733a2f2f7777772e6675656c65636f6e6f6d792e676f762f77732f726573742f6675656c707269636573292e6675656c5072696365732e726567756c6172",
  "source": "pragma solidity >=0.4.22 <0.7.0;\n\nimport \"./provableAPI.sol\";\n\ncontract GasPrice is usingProvable {\n    uint public gasPriceUSD;\n    \n    event LogNewGasPrice(string price);\n    event LogNewProvableQuery(string description);\n    \n    constructor() public {\n        update();\n    }\n    \n    function __callback(bytes32 _myid, string memory _result) public {\n        require(msg.sender == provable_cbAddress()); //AHHH why does it need to be a cb address\n        emit LogNewGasPrice(_result);\n        gasPriceUSD = parseInt(_result, 2);\n    }\n    \n    function update() public payable {\n        emit LogNewProvableQuery(\"Provable query was sent, waiting for answer...\");\n        provable_query(\"URL\", \"xml(https://www.fueleconomy.gov/ws/rest/fuelprices).fuelPrices.regular\");\n    }\n\n    function resetToZero() public payable {\n        gasPriceUSD = 0;\n    }\n}",
  "sourcePath": "/Users/wesleypenn/Documents/2019-2020/CIS233/final-project/final-project-contract/contracts/GasPrice.sol",
  "compiler": {
    "name": "solc",
    "version": "0.5.8+commit.23d335f2.Emscripten.clang"
  },
  "schemaVersion": "3.0.16",
  "updatedAt": "2019-11-16T04:44:25.104Z",
  "devdoc": {
    "methods": {}
  },
  "userdoc": {
    "methods": {}
  }
}