{
  "contractName": "Insurance",
  "abi": [
    {
      "constant": true,
      "inputs": [],
      "name": "termAmount",
      "outputs": [
        {
          "name": "",
          "type": "uint256"
        }
      ],
      "payable": false,
      "stateMutability": "view",
      "type": "function"
    },
    {
      "constant": true,
      "inputs": [],
      "name": "policyHolder",
      "outputs": [
        {
          "name": "",
          "type": "address"
        }
      ],
      "payable": false,
      "stateMutability": "view",
      "type": "function"
    },
    {
      "constant": true,
      "inputs": [],
      "name": "boughtIn",
      "outputs": [
        {
          "name": "",
          "type": "bool"
        }
      ],
      "payable": false,
      "stateMutability": "view",
      "type": "function"
    },
    {
      "constant": true,
      "inputs": [],
      "name": "expiryTime",
      "outputs": [
        {
          "name": "",
          "type": "uint256"
        }
      ],
      "payable": false,
      "stateMutability": "view",
      "type": "function"
    },
    {
      "constant": true,
      "inputs": [],
      "name": "gasPriceUSD",
      "outputs": [
        {
          "name": "",
          "type": "uint256"
        }
      ],
      "payable": false,
      "stateMutability": "view",
      "type": "function"
    },
    {
      "constant": true,
      "inputs": [],
      "name": "provableQueryId",
      "outputs": [
        {
          "name": "",
          "type": "bytes32"
        }
      ],
      "payable": false,
      "stateMutability": "view",
      "type": "function"
    },
    {
      "constant": true,
      "inputs": [],
      "name": "proposed",
      "outputs": [
        {
          "name": "",
          "type": "bool"
        }
      ],
      "payable": false,
      "stateMutability": "view",
      "type": "function"
    },
    {
      "constant": true,
      "inputs": [],
      "name": "insurer",
      "outputs": [
        {
          "name": "",
          "type": "address"
        }
      ],
      "payable": false,
      "stateMutability": "view",
      "type": "function"
    },
    {
      "inputs": [],
      "payable": false,
      "stateMutability": "nonpayable",
      "type": "constructor"
    },
    {
      "constant": false,
      "inputs": [
        {
          "name": "_predictedPrice",
          "type": "uint256"
        },
        {
          "name": "_queryDelay",
          "type": "uint256"
        }
      ],
      "name": "proposeContract",
      "outputs": [],
      "payable": true,
      "stateMutability": "payable",
      "type": "function"
    },
    {
      "constant": false,
      "inputs": [],
      "name": "buyIn",
      "outputs": [],
      "payable": true,
      "stateMutability": "payable",
      "type": "function"
    },
    {
      "constant": false,
      "inputs": [
        {
          "name": "_myid",
          "type": "bytes32"
        },
        {
          "name": "_result",
          "type": "string"
        }
      ],
      "name": "__callback",
      "outputs": [],
      "payable": false,
      "stateMutability": "nonpayable",
      "type": "function"
    },
    {
      "constant": false,
      "inputs": [
        {
          "name": "_myid",
          "type": "bytes32"
        },
        {
          "name": "_result",
          "type": "string"
        },
        {
          "name": "_proof",
          "type": "bytes"
        }
      ],
      "name": "__callback",
      "outputs": [],
      "payable": false,
      "stateMutability": "nonpayable",
      "type": "function"
    }
  ],
  "bytecode": "0x608060405234801561001057600080fd5b5060006005819055506000600781905550600060088190555060006009819055506000600a819055506000600b60006101000a81548173ffffffffffffffffffffffffffffffffffffffff021916908373ffffffffffffffffffffffffffffffffffffffff1602179055506000600c60006101000a81548173ffffffffffffffffffffffffffffffffffffffff021916908373ffffffffffffffffffffffffffffffffffffffff1602179055506000600c60146101000a81548160ff0219169083151502179055506000600c60156101000a81548160ff0219169083151502179055506000801b600681905550611b1c8061010c6000396000f3fe6080604052600436106100a75760003560e01c80639466af4e116100645780639466af4e146103ab57806399bc0aea146103da578063be46e42514610405578063cac03b3714610430578063d1851c921461045b578063dbc837c51461048a576100a7565b806327dc297e146100ac57806338bbfa501461017e57806353aab434146102e75780637bf4fa22146102f157806381f8ac8e1461031c57806387669c0314610373575b600080fd5b3480156100b857600080fd5b5061017c600480360360408110156100cf57600080fd5b8101908080359060200190929190803590602001906401000000008111156100f657600080fd5b82018360208201111561010857600080fd5b8035906020019184600183028401116401000000008311171561012a57600080fd5b91908080601f016020809104026020016040519081016040528093929190818152602001838380828437600081840152601f19601f8201169050808301925050505050505091929192905050506104e1565b005b34801561018a57600080fd5b506102e5600480360360608110156101a157600080fd5b8101908080359060200190929190803590602001906401000000008111156101c857600080fd5b8201836020820111156101da57600080fd5b803590602001918460018302840111640100000000831117156101fc57600080fd5b91908080601f016020809104026020016040519081016040528093929190818152602001838380828437600081840152601f19601f8201169050808301925050505050505091929192908035906020019064010000000081111561025f57600080fd5b82018360208201111561027157600080fd5b8035906020019184600183028401116401000000008311171561029357600080fd5b91908080601f016020809104026020016040519081016040528093929190818152602001838380828437600081840152601f19601f820116905080830192505050505050509192919290505050610625565b005b6102ef610648565b005b3480156102fd57600080fd5b506103066107d4565b6040518082815260200191505060405180910390f35b34801561032857600080fd5b506103316107da565b604051808273ffffffffffffffffffffffffffffffffffffffff1673ffffffffffffffffffffffffffffffffffffffff16815260200191505060405180910390f35b6103a96004803603604081101561038957600080fd5b810190808035906020019092919080359060200190929190505050610800565b005b3480156103b757600080fd5b506103c0610977565b604051808215151515815260200191505060405180910390f35b3480156103e657600080fd5b506103ef61098a565b6040518082815260200191505060405180910390f35b34801561041157600080fd5b5061041a610990565b6040518082815260200191505060405180910390f35b34801561043c57600080fd5b50610445610996565b6040518082815260200191505060405180910390f35b34801561046757600080fd5b5061047061099c565b604051808215151515815260200191505060405180910390f35b34801561049657600080fd5b5061049f6109af565b604051808273ffffffffffffffffffffffffffffffffffffffff1673ffffffffffffffffffffffffffffffffffffffff16815260200191505060405180910390f35b6104e96109d5565b73ffffffffffffffffffffffffffffffffffffffff163373ffffffffffffffffffffffffffffffffffffffff161461052057600080fd5b61052b816002610cf2565b60058190555060075460055411156105ad57600b60009054906101000a900473ffffffffffffffffffffffffffffffffffffffff1673ffffffffffffffffffffffffffffffffffffffff166108fc6008549081150290604051600060405180830381858888f193505050501580156105a7573d6000803e3d6000fd5b50610619565b600c60009054906101000a900473ffffffffffffffffffffffffffffffffffffffff1673ffffffffffffffffffffffffffffffffffffffff166108fc6008549081150290604051600060405180830381858888f19350505050158015610617573d6000803e3d6000fd5b505b610621610e05565b5050565b6000801b600360008060001b815260200190815260200160002081905550505050565b600c60149054906101000a900460ff166106ad576040517f08c379a0000000000000000000000000000000000000000000000000000000008152600401808060200182810382526026815260200180611a5a6026913960400191505060405180910390fd5b600a543414610707576040517f08c379a000000000000000000000000000000000000000000000000000000000815260040180806020018281038252602b815260200180611ac6602b913960400191505060405180910390fd5b33600c60006101000a81548173ffffffffffffffffffffffffffffffffffffffff021916908373ffffffffffffffffffffffffffffffffffffffff16021790555034600854016008819055506001600c60156101000a81548160ff02191690831515021790555060008090506107cb816040518060400160405280600381526020017f55524c0000000000000000000000000000000000000000000000000000000000815250604051806080016040528060468152602001611a8060469139610ee1565b60068190555050565b600a5481565b600b60009054906101000a900473ffffffffffffffffffffffffffffffffffffffff1681565b600c60149054906101000a900460ff1615610883576040517f08c379a00000000000000000000000000000000000000000000000000000000081526004018080602001828103825260198152602001807f636f6e747261637420616c72656164792070726f706f7365640000000000000081525060200191505060405180910390fd5b600034116108f9576040517f08c379a000000000000000000000000000000000000000000000000000000000815260040180806020018281038252601d8152602001807f596f75206e65656420746f2070757420696e20736f6d6520657468657200000081525060200191505060405180910390fd5b33600b60006101000a81548173ffffffffffffffffffffffffffffffffffffffff021916908373ffffffffffffffffffffffffffffffffffffffff16021790555034600a81905550600a5460088190555081600781905550806009819055506001600c60146101000a81548160ff0219169083151502179055505050565b600c60159054906101000a900460ff1681565b60095481565b60055481565b60065481565b600c60149054906101000a900460ff1681565b600c60009054906101000a900473ffffffffffffffffffffffffffffffffffffffff1681565b60008073ffffffffffffffffffffffffffffffffffffffff16600160009054906101000a900473ffffffffffffffffffffffffffffffffffffffff1673ffffffffffffffffffffffffffffffffffffffff161480610a5d57506000610a5b600160009054906101000a900473ffffffffffffffffffffffffffffffffffffffff16611427565b145b15610a6e57610a6c6000611432565b505b600160009054906101000a900473ffffffffffffffffffffffffffffffffffffffff1673ffffffffffffffffffffffffffffffffffffffff166338cc48316040518163ffffffff1660e01b8152600401602060405180830381600087803b158015610ad857600080fd5b505af1158015610aec573d6000803e3d6000fd5b505050506040513d6020811015610b0257600080fd5b810190808051906020019092919050505073ffffffffffffffffffffffffffffffffffffffff166000809054906101000a900473ffffffffffffffffffffffffffffffffffffffff1673ffffffffffffffffffffffffffffffffffffffff1614610c4b57600160009054906101000a900473ffffffffffffffffffffffffffffffffffffffff1673ffffffffffffffffffffffffffffffffffffffff166338cc48316040518163ffffffff1660e01b8152600401602060405180830381600087803b158015610bd057600080fd5b505af1158015610be4573d6000803e3d6000fd5b505050506040513d6020811015610bfa57600080fd5b81019080805190602001909291905050506000806101000a81548173ffffffffffffffffffffffffffffffffffffffff021916908373ffffffffffffffffffffffffffffffffffffffff1602179055505b6000809054906101000a900473ffffffffffffffffffffffffffffffffffffffff1673ffffffffffffffffffffffffffffffffffffffff1663c281d19e6040518163ffffffff1660e01b815260040160206040518083038186803b158015610cb257600080fd5b505afa158015610cc6573d6000803e3d6000fd5b505050506040513d6020811015610cdc57600080fd5b8101908080519060200190929190505050905090565b600060608390506000809050600080905060008090505b8351811015610de6576030848281518110610d2057fe5b602001015160f81c60f81b60f81c60ff1610158015610d5c57506039848281518110610d4857fe5b602001015160f81c60f81b60f81c60ff1611155b15610dae578115610d7f576000861415610d7557610de6565b8580600190039650505b600a830292506030848281518110610d9357fe5b602001015160f81c60f81b60f81c60ff160383019250610dd9565b602e848281518110610dbc57fe5b602001015160f81c60f81b60f81c60ff161415610dd857600191505b5b8080600101915050610d09565b506000851115610df95784600a0a820291505b81935050505092915050565b6000600781905550600060088190555060006009819055506000600a819055506000600b60006101000a81548173ffffffffffffffffffffffffffffffffffffffff021916908373ffffffffffffffffffffffffffffffffffffffff1602179055506000600c60006101000a81548173ffffffffffffffffffffffffffffffffffffffff021916908373ffffffffffffffffffffffffffffffffffffffff1602179055506000600c60146101000a81548160ff0219169083151502179055506000600c60156101000a81548160ff021916908315150217905550565b60008073ffffffffffffffffffffffffffffffffffffffff16600160009054906101000a900473ffffffffffffffffffffffffffffffffffffffff1673ffffffffffffffffffffffffffffffffffffffff161480610f6957506000610f67600160009054906101000a900473ffffffffffffffffffffffffffffffffffffffff16611427565b145b15610f7a57610f786000611432565b505b600160009054906101000a900473ffffffffffffffffffffffffffffffffffffffff1673ffffffffffffffffffffffffffffffffffffffff166338cc48316040518163ffffffff1660e01b8152600401602060405180830381600087803b158015610fe457600080fd5b505af1158015610ff8573d6000803e3d6000fd5b505050506040513d602081101561100e57600080fd5b810190808051906020019092919050505073ffffffffffffffffffffffffffffffffffffffff166000809054906101000a900473ffffffffffffffffffffffffffffffffffffffff1673ffffffffffffffffffffffffffffffffffffffff161461115757600160009054906101000a900473ffffffffffffffffffffffffffffffffffffffff1673ffffffffffffffffffffffffffffffffffffffff166338cc48316040518163ffffffff1660e01b8152600401602060405180830381600087803b1580156110dc57600080fd5b505af11580156110f0573d6000803e3d6000fd5b505050506040513d602081101561110657600080fd5b81019080805190602001909291905050506000806101000a81548173ffffffffffffffffffffffffffffffffffffffff021916908373ffffffffffffffffffffffffffffffffffffffff1602179055505b60008060009054906101000a900473ffffffffffffffffffffffffffffffffffffffff1673ffffffffffffffffffffffffffffffffffffffff1663524f3889856040518263ffffffff1660e01b81526004018080602001828103825283818151815260200191508051906020019080838360005b838110156111e65780820151818401526020810190506111cb565b50505050905090810190601f1680156112135780820380516001836020036101000a031916815260200191505b5092505050602060405180830381600087803b15801561123257600080fd5b505af1158015611246573d6000803e3d6000fd5b505050506040513d602081101561125c57600080fd5b8101908080519060200190929190505050905062030d403a02670de0b6b3a764000001811115611292576000801b915050611420565b6000809054906101000a900473ffffffffffffffffffffffffffffffffffffffff1673ffffffffffffffffffffffffffffffffffffffff1663adf59f99828787876040518563ffffffff1660e01b8152600401808481526020018060200180602001838103835285818151815260200191508051906020019080838360005b8381101561132c578082015181840152602081019050611311565b50505050905090810190601f1680156113595780820380516001836020036101000a031916815260200191505b50838103825284818151815260200191508051906020019080838360005b83811015611392578082015181840152602081019050611377565b50505050905090810190601f1680156113bf5780820380516001836020036101000a031916815260200191505b50955050505050506020604051808303818588803b1580156113e057600080fd5b505af11580156113f4573d6000803e3d6000fd5b50505050506040513d602081101561140b57600080fd5b81019080805190602001909291905050509150505b9392505050565b6000813b9050919050565b600061143c611443565b9050919050565b600080611463731d3b2638a7cc9f2cb3d298a3da7a90b67e5506ed611427565b111561150557731d3b2638a7cc9f2cb3d298a3da7a90b67e5506ed600160006101000a81548173ffffffffffffffffffffffffffffffffffffffff021916908373ffffffffffffffffffffffffffffffffffffffff1602179055506114fc6040518060400160405280600b81526020017f6574685f6d61696e6e657400000000000000000000000000000000000000000081525061199a565b60019050611997565b600061152473c03a2615d5efaf5f49f60b7bb6583eaec212fdf1611427565b11156115c65773c03a2615d5efaf5f49f60b7bb6583eaec212fdf1600160006101000a81548173ffffffffffffffffffffffffffffffffffffffff021916908373ffffffffffffffffffffffffffffffffffffffff1602179055506115bd6040518060400160405280600c81526020017f6574685f726f707374656e33000000000000000000000000000000000000000081525061199a565b60019050611997565b60006115e573b7a07bcf2ba2f2703b24c0691b5278999c59ac7e611427565b11156116875773b7a07bcf2ba2f2703b24c0691b5278999c59ac7e600160006101000a81548173ffffffffffffffffffffffffffffffffffffffff021916908373ffffffffffffffffffffffffffffffffffffffff16021790555061167e6040518060400160405280600981526020017f6574685f6b6f76616e000000000000000000000000000000000000000000000081525061199a565b60019050611997565b60006116a673146500cfd35b22e4a392fe0adc06de1a1368ed48611427565b11156117485773146500cfd35b22e4a392fe0adc06de1a1368ed48600160006101000a81548173ffffffffffffffffffffffffffffffffffffffff021916908373ffffffffffffffffffffffffffffffffffffffff16021790555061173f6040518060400160405280600b81526020017f6574685f72696e6b65627900000000000000000000000000000000000000000081525061199a565b60019050611997565b600061176773a2998efd205fb9d4b4963afb70778d6354ad3a41611427565b11156118095773a2998efd205fb9d4b4963afb70778d6354ad3a41600160006101000a81548173ffffffffffffffffffffffffffffffffffffffff021916908373ffffffffffffffffffffffffffffffffffffffff1602179055506118006040518060400160405280600a81526020017f6574685f676f65726c690000000000000000000000000000000000000000000081525061199a565b60019050611997565b6000611828736f485c8bf6fc43ea212e93bbf8ce046c7f1cb475611427565b111561188c57736f485c8bf6fc43ea212e93bbf8ce046c7f1cb475600160006101000a81548173ffffffffffffffffffffffffffffffffffffffff021916908373ffffffffffffffffffffffffffffffffffffffff16021790555060019050611997565b60006118ab7320e12a1f859b3feae5fb2a0a32c18f5a65555bbf611427565b111561190f577320e12a1f859b3feae5fb2a0a32c18f5a65555bbf600160006101000a81548173ffffffffffffffffffffffffffffffffffffffff021916908373ffffffffffffffffffffffffffffffffffffffff16021790555060019050611997565b600061192e7351efaf4c8b3c9afbd5ab9f4bbc82784ab6ef8faa611427565b1115611992577351efaf4c8b3c9afbd5ab9f4bbc82784ab6ef8faa600160006101000a81548173ffffffffffffffffffffffffffffffffffffffff021916908373ffffffffffffffffffffffffffffffffffffffff16021790555060019050611997565b600090505b90565b80600290805190602001906119b09291906119b4565b5050565b828054600181600116156101000203166002900490600052602060002090601f016020900481019282601f106119f557805160ff1916838001178555611a23565b82800160010185558215611a23579182015b82811115611a22578251825591602001919060010190611a07565b5b509050611a309190611a34565b5090565b611a5691905b80821115611a52576000816000905550600101611a3a565b5090565b9056fe596f75206e65656420736f6d656f6e6520746f2070726f706f7365206120636f6e7472616374786d6c2868747470733a2f2f7777772e6675656c65636f6e6f6d792e676f762f77732f726573742f6675656c707269636573292e6675656c5072696365732e726567756c6172596f75206e65656420746f2070757420696e207468652073616d6520616d6f756e74206f66206574686572a165627a7a72305820cedeed4c4181b94c29656640ab28c7bf2511626ecedd66e4fd359b3a9d86feae0029",
  "source": "pragma solidity >= 0.4.22 < 0.7.0;\n\nimport \"./provableAPI.sol\";\n\ncontract Insurance is usingProvable {\n    //api\n    uint public gasPriceUSD; //TODO: oracle api will dictate this variable\n    bytes32 public provableQueryId;\n    \n    //contract terms\n    uint256 predictedPrice;\n    uint256 toPayout; //Total winnings\n    uint256 public expiryTime; // time the contract will end --> calls oracle query and automatically triggers the API call and payout\n    uint256 public termAmount; //TODO: temporary variable for MVP -- premium/payout\n    \n    //addresses\n    address payable public policyHolder; // address of the person b eing insured\n    address payable public insurer; //address of the insurer\n    \n    //state of contract\n    bool public proposed;\n    bool public boughtIn;\n    \n    constructor() public{\n        gasPriceUSD = 0;\n        \n        predictedPrice = 0;\n        toPayout = 0;\n        expiryTime = 0;\n        termAmount = 0;\n        \n        policyHolder = address(0);\n        insurer = address(0);\n        \n        proposed = false;\n        boughtIn = false;\n        \n        provableQueryId = bytes32(0);\n    }\n    \n    function proposeContract(uint256 _predictedPrice, uint256 _queryDelay) public payable {\n        require(!proposed, \"contract already proposed\");\n        require(msg.value > 0, \"You need to put in some ether\");\n        policyHolder = msg.sender;\n        termAmount = msg.value;\n        toPayout = termAmount;\n        predictedPrice = _predictedPrice;\n        \n        // expiryTime = now + _queryDelay; //TODO: need to figure out how to deal with expire time\n        expiryTime = _queryDelay;\n        \n        proposed = true;\n    }\n    \n    function buyIn() public payable {\n        require(proposed, \"You need someone to propose a contract\");\n        require(msg.value == termAmount, \"You need to put in the same amount of ether\");\n        //require(msg.sender != policyHolder, \"You can't buy into the contract if you proposed it.\"); //Remove for testing purposes\n        insurer = msg.sender;\n        toPayout = toPayout + msg.value;\n        \n        boughtIn = true;\n        \n        //Oracle API call\n//      uint queryDelay = expiryTime - now; //TODO\n        uint queryDelay = 0;\n        provableQueryId = provable_query(queryDelay, \"URL\", \"xml(https://www.fueleconomy.gov/ws/rest/fuelprices).fuelPrices.regular\");\n    }\n    \n    function __callback(bytes32 _myid, string memory _result) public {\n        require(msg.sender == provable_cbAddress());\n        gasPriceUSD = parseInt(_result, 2);\n        \n        if (gasPriceUSD > predictedPrice) { //TODO\n            policyHolder.transfer(toPayout);\n        } else {\n            insurer.transfer(toPayout);\n        }\n        clearContract();\n    }\n    \n    function clearContract() private{\n        predictedPrice = 0;\n        toPayout = 0;\n        expiryTime = 0;\n        termAmount = 0;\n        \n        policyHolder = address(0);\n        insurer = address(0);\n        \n        proposed = false;\n        boughtIn = false;\n    }\n}",
  "sourcePath": "/Users/wesleypenn/Documents/2019-2020/CIS233/final-project/final-project-contract/contracts/Insurance.sol",
  "compiler": {
    "name": "solc",
    "version": "0.5.8+commit.23d335f2.Emscripten.clang"
  },
  "schemaVersion": "3.0.16",
  "updatedAt": "2019-12-04T22:00:50.012Z",
  "devdoc": {
    "methods": {}
  },
  "userdoc": {
    "methods": {}
  }
}