{
  "contractName": "Insurance",
  "abi": [
    {
      "constant": true,
      "inputs": [],
      "name": "termAmount",
      "outputs": [
        {
          "name": "",
          "type": "uint256"
        }
      ],
      "payable": false,
      "stateMutability": "view",
      "type": "function"
    },
    {
      "constant": true,
      "inputs": [],
      "name": "policyHolder",
      "outputs": [
        {
          "name": "",
          "type": "address"
        }
      ],
      "payable": false,
      "stateMutability": "view",
      "type": "function"
    },
    {
      "constant": true,
      "inputs": [],
      "name": "boughtIn",
      "outputs": [
        {
          "name": "",
          "type": "bool"
        }
      ],
      "payable": false,
      "stateMutability": "view",
      "type": "function"
    },
    {
      "constant": true,
      "inputs": [],
      "name": "expiryTime",
      "outputs": [
        {
          "name": "",
          "type": "uint256"
        }
      ],
      "payable": false,
      "stateMutability": "view",
      "type": "function"
    },
    {
      "constant": true,
      "inputs": [],
      "name": "gasPriceUSD",
      "outputs": [
        {
          "name": "",
          "type": "uint256"
        }
      ],
      "payable": false,
      "stateMutability": "view",
      "type": "function"
    },
    {
      "constant": true,
      "inputs": [],
      "name": "provableQueryId",
      "outputs": [
        {
          "name": "",
          "type": "bytes32"
        }
      ],
      "payable": false,
      "stateMutability": "view",
      "type": "function"
    },
    {
      "constant": true,
      "inputs": [],
      "name": "proposed",
      "outputs": [
        {
          "name": "",
          "type": "bool"
        }
      ],
      "payable": false,
      "stateMutability": "view",
      "type": "function"
    },
    {
      "constant": true,
      "inputs": [],
      "name": "insurer",
      "outputs": [
        {
          "name": "",
          "type": "address"
        }
      ],
      "payable": false,
      "stateMutability": "view",
      "type": "function"
    },
    {
      "inputs": [],
      "payable": false,
      "stateMutability": "nonpayable",
      "type": "constructor"
    },
    {
      "constant": false,
      "inputs": [
        {
          "name": "_predictedPrice",
          "type": "uint256"
        },
        {
          "name": "_queryDelay",
          "type": "uint256"
        }
      ],
      "name": "proposeContract",
      "outputs": [],
      "payable": true,
      "stateMutability": "payable",
      "type": "function"
    },
    {
      "constant": false,
      "inputs": [],
      "name": "buyIn",
      "outputs": [],
      "payable": true,
      "stateMutability": "payable",
      "type": "function"
    },
    {
      "constant": false,
      "inputs": [
        {
          "name": "_myid",
          "type": "bytes32"
        },
        {
          "name": "_result",
          "type": "string"
        }
      ],
      "name": "__callback",
      "outputs": [],
      "payable": false,
      "stateMutability": "nonpayable",
      "type": "function"
    },
    {
      "constant": false,
      "inputs": [
        {
          "name": "_myid",
          "type": "bytes32"
        },
        {
          "name": "_result",
          "type": "string"
        },
        {
          "name": "_proof",
          "type": "bytes"
        }
      ],
      "name": "__callback",
      "outputs": [],
      "payable": false,
      "stateMutability": "nonpayable",
      "type": "function"
    },
    {
      "constant": false,
      "inputs": [],
      "name": "killContract",
      "outputs": [],
      "payable": false,
      "stateMutability": "nonpayable",
      "type": "function"
    }
  ],
  "bytecode": "0x608060405234801561001057600080fd5b5060006005819055506000600781905550600060088190555060006009819055506000600a819055506000600b60006101000a81548173ffffffffffffffffffffffffffffffffffffffff021916908373ffffffffffffffffffffffffffffffffffffffff1602179055506000600c60006101000a81548173ffffffffffffffffffffffffffffffffffffffff021916908373ffffffffffffffffffffffffffffffffffffffff1602179055506000600c60146101000a81548160ff0219169083151502179055506000600c60156101000a81548160ff0219169083151502179055506000801b600681905550611e3e8061010c6000396000f3fe6080604052600436106100c25760003560e01c806387669c031161007f578063be46e42511610059578063be46e42514610437578063cac03b3714610462578063d1851c921461048d578063dbc837c5146104bc576100c2565b806387669c03146103a55780639466af4e146103dd57806399bc0aea1461040c576100c2565b80631c02708d146100c757806327dc297e146100de57806338bbfa50146101b057806353aab434146103195780637bf4fa221461032357806381f8ac8e1461034e575b600080fd5b3480156100d357600080fd5b506100dc610513565b005b3480156100ea57600080fd5b506101ae6004803603604081101561010157600080fd5b81019080803590602001909291908035906020019064010000000081111561012857600080fd5b82018360208201111561013a57600080fd5b8035906020019184600183028401116401000000008311171561015c57600080fd5b91908080601f016020809104026020016040519081016040528093929190818152602001838380828437600081840152601f19601f82011690508083019250505050505050919291929050505061070b565b005b3480156101bc57600080fd5b50610317600480360360608110156101d357600080fd5b8101908080359060200190929190803590602001906401000000008111156101fa57600080fd5b82018360208201111561020c57600080fd5b8035906020019184600183028401116401000000008311171561022e57600080fd5b91908080601f016020809104026020016040519081016040528093929190818152602001838380828437600081840152601f19601f8201169050808301925050505050505091929192908035906020019064010000000081111561029157600080fd5b8201836020820111156102a357600080fd5b803590602001918460018302840111640100000000831117156102c557600080fd5b91908080601f016020809104026020016040519081016040528093929190818152602001838380828437600081840152601f19601f82011690508083019250505050505050919291929050505061084f565b005b610321610872565b005b34801561032f57600080fd5b50610338610a49565b6040518082815260200191505060405180910390f35b34801561035a57600080fd5b50610363610a4f565b604051808273ffffffffffffffffffffffffffffffffffffffff1673ffffffffffffffffffffffffffffffffffffffff16815260200191505060405180910390f35b6103db600480360360408110156103bb57600080fd5b810190808035906020019092919080359060200190929190505050610a75565b005b3480156103e957600080fd5b506103f2610bec565b604051808215151515815260200191505060405180910390f35b34801561041857600080fd5b50610421610bff565b6040518082815260200191505060405180910390f35b34801561044357600080fd5b5061044c610c05565b6040518082815260200191505060405180910390f35b34801561046e57600080fd5b50610477610c0b565b6040518082815260200191505060405180910390f35b34801561049957600080fd5b506104a2610c11565b604051808215151515815260200191505060405180910390f35b3480156104c857600080fd5b506104d1610c24565b604051808273ffffffffffffffffffffffffffffffffffffffff1673ffffffffffffffffffffffffffffffffffffffff16815260200191505060405180910390f35b600073ffffffffffffffffffffffffffffffffffffffff163373ffffffffffffffffffffffffffffffffffffffff16141561054d57600080fd5b600b60009054906101000a900473ffffffffffffffffffffffffffffffffffffffff1673ffffffffffffffffffffffffffffffffffffffff163373ffffffffffffffffffffffffffffffffffffffff1614806105f65750600c60009054906101000a900473ffffffffffffffffffffffffffffffffffffffff1673ffffffffffffffffffffffffffffffffffffffff163373ffffffffffffffffffffffffffffffffffffffff16145b6105ff57600080fd5b600c60149054906101000a900460ff161561068057600b60009054906101000a900473ffffffffffffffffffffffffffffffffffffffff1673ffffffffffffffffffffffffffffffffffffffff166108fc600a549081150290604051600060405180830381858888f1935050505015801561067e573d6000803e3d6000fd5b505b600c60159054906101000a900460ff161561070157600c60009054906101000a900473ffffffffffffffffffffffffffffffffffffffff1673ffffffffffffffffffffffffffffffffffffffff166108fc600a549081150290604051600060405180830381858888f193505050501580156106ff573d6000803e3d6000fd5b505b610709610c4a565b565b610713610d38565b73ffffffffffffffffffffffffffffffffffffffff163373ffffffffffffffffffffffffffffffffffffffff161461074a57600080fd5b610755816002611055565b60058190555060075460055411156107d757600b60009054906101000a900473ffffffffffffffffffffffffffffffffffffffff1673ffffffffffffffffffffffffffffffffffffffff166108fc6008549081150290604051600060405180830381858888f193505050501580156107d1573d6000803e3d6000fd5b50610843565b600c60009054906101000a900473ffffffffffffffffffffffffffffffffffffffff1673ffffffffffffffffffffffffffffffffffffffff166108fc6008549081150290604051600060405180830381858888f19350505050158015610841573d6000803e3d6000fd5b505b61084b610c4a565b5050565b6000801b600360008060001b815260200190815260200160002081905550505050565b600c60149054906101000a900460ff166108d7576040517f08c379a0000000000000000000000000000000000000000000000000000000008152600401808060200182810382526026815260200180611d496026913960400191505060405180910390fd5b600a543414610931576040517f08c379a000000000000000000000000000000000000000000000000000000000815260040180806020018281038252602b815260200180611de8602b913960400191505060405180910390fd5b600b60009054906101000a900473ffffffffffffffffffffffffffffffffffffffff1673ffffffffffffffffffffffffffffffffffffffff163373ffffffffffffffffffffffffffffffffffffffff1614156109d8576040517f08c379a0000000000000000000000000000000000000000000000000000000008152600401808060200182810382526033815260200180611db56033913960400191505060405180910390fd5b33600c60006101000a81548173ffffffffffffffffffffffffffffffffffffffff021916908373ffffffffffffffffffffffffffffffffffffffff16021790555034600854016008819055506001600c60156101000a81548160ff021916908315150217905550610a47611168565b565b600a5481565b600b60009054906101000a900473ffffffffffffffffffffffffffffffffffffffff1681565b600c60149054906101000a900460ff1615610af8576040517f08c379a00000000000000000000000000000000000000000000000000000000081526004018080602001828103825260198152602001807f636f6e747261637420616c72656164792070726f706f7365640000000000000081525060200191505060405180910390fd5b60003411610b6e576040517f08c379a000000000000000000000000000000000000000000000000000000000815260040180806020018281038252601d8152602001807f596f75206e65656420746f2070757420696e20736f6d6520657468657200000081525060200191505060405180910390fd5b33600b60006101000a81548173ffffffffffffffffffffffffffffffffffffffff021916908373ffffffffffffffffffffffffffffffffffffffff16021790555034600a81905550600a5460088190555081600781905550806009819055506001600c60146101000a81548160ff0219169083151502179055505050565b600c60159054906101000a900460ff1681565b60095481565b60055481565b60065481565b600c60149054906101000a900460ff1681565b600c60009054906101000a900473ffffffffffffffffffffffffffffffffffffffff1681565b60006005819055506000600781905550600060088190555060006009819055506000600a819055506000600b60006101000a81548173ffffffffffffffffffffffffffffffffffffffff021916908373ffffffffffffffffffffffffffffffffffffffff1602179055506000600c60006101000a81548173ffffffffffffffffffffffffffffffffffffffff021916908373ffffffffffffffffffffffffffffffffffffffff1602179055506000600c60146101000a81548160ff0219169083151502179055506000600c60156101000a81548160ff0219169083151502179055506000801b600681905550565b60008073ffffffffffffffffffffffffffffffffffffffff16600160009054906101000a900473ffffffffffffffffffffffffffffffffffffffff1673ffffffffffffffffffffffffffffffffffffffff161480610dc057506000610dbe600160009054906101000a900473ffffffffffffffffffffffffffffffffffffffff166111d0565b145b15610dd157610dcf60006111db565b505b600160009054906101000a900473ffffffffffffffffffffffffffffffffffffffff1673ffffffffffffffffffffffffffffffffffffffff166338cc48316040518163ffffffff1660e01b8152600401602060405180830381600087803b158015610e3b57600080fd5b505af1158015610e4f573d6000803e3d6000fd5b505050506040513d6020811015610e6557600080fd5b810190808051906020019092919050505073ffffffffffffffffffffffffffffffffffffffff166000809054906101000a900473ffffffffffffffffffffffffffffffffffffffff1673ffffffffffffffffffffffffffffffffffffffff1614610fae57600160009054906101000a900473ffffffffffffffffffffffffffffffffffffffff1673ffffffffffffffffffffffffffffffffffffffff166338cc48316040518163ffffffff1660e01b8152600401602060405180830381600087803b158015610f3357600080fd5b505af1158015610f47573d6000803e3d6000fd5b505050506040513d6020811015610f5d57600080fd5b81019080805190602001909291905050506000806101000a81548173ffffffffffffffffffffffffffffffffffffffff021916908373ffffffffffffffffffffffffffffffffffffffff1602179055505b6000809054906101000a900473ffffffffffffffffffffffffffffffffffffffff1673ffffffffffffffffffffffffffffffffffffffff1663c281d19e6040518163ffffffff1660e01b815260040160206040518083038186803b15801561101557600080fd5b505afa158015611029573d6000803e3d6000fd5b505050506040513d602081101561103f57600080fd5b8101908080519060200190929190505050905090565b600060608390506000809050600080905060008090505b835181101561114957603084828151811061108357fe5b602001015160f81c60f81b60f81c60ff16101580156110bf575060398482815181106110ab57fe5b602001015160f81c60f81b60f81c60ff1611155b156111115781156110e25760008614156110d857611149565b8580600190039650505b600a8302925060308482815181106110f657fe5b602001015160f81c60f81b60f81c60ff16038301925061113c565b602e84828151811061111f57fe5b602001015160f81c60f81b60f81c60ff16141561113b57600191505b5b808060010191505061106c565b50600085111561115c5784600a0a820291505b81935050505092915050565b600060095490506111c7816040518060400160405280600381526020017f55524c0000000000000000000000000000000000000000000000000000000000815250604051806080016040528060468152602001611d6f604691396111ec565b60068190555050565b6000813b9050919050565b60006111e5611732565b9050919050565b60008073ffffffffffffffffffffffffffffffffffffffff16600160009054906101000a900473ffffffffffffffffffffffffffffffffffffffff1673ffffffffffffffffffffffffffffffffffffffff16148061127457506000611272600160009054906101000a900473ffffffffffffffffffffffffffffffffffffffff166111d0565b145b156112855761128360006111db565b505b600160009054906101000a900473ffffffffffffffffffffffffffffffffffffffff1673ffffffffffffffffffffffffffffffffffffffff166338cc48316040518163ffffffff1660e01b8152600401602060405180830381600087803b1580156112ef57600080fd5b505af1158015611303573d6000803e3d6000fd5b505050506040513d602081101561131957600080fd5b810190808051906020019092919050505073ffffffffffffffffffffffffffffffffffffffff166000809054906101000a900473ffffffffffffffffffffffffffffffffffffffff1673ffffffffffffffffffffffffffffffffffffffff161461146257600160009054906101000a900473ffffffffffffffffffffffffffffffffffffffff1673ffffffffffffffffffffffffffffffffffffffff166338cc48316040518163ffffffff1660e01b8152600401602060405180830381600087803b1580156113e757600080fd5b505af11580156113fb573d6000803e3d6000fd5b505050506040513d602081101561141157600080fd5b81019080805190602001909291905050506000806101000a81548173ffffffffffffffffffffffffffffffffffffffff021916908373ffffffffffffffffffffffffffffffffffffffff1602179055505b60008060009054906101000a900473ffffffffffffffffffffffffffffffffffffffff1673ffffffffffffffffffffffffffffffffffffffff1663524f3889856040518263ffffffff1660e01b81526004018080602001828103825283818151815260200191508051906020019080838360005b838110156114f15780820151818401526020810190506114d6565b50505050905090810190601f16801561151e5780820380516001836020036101000a031916815260200191505b5092505050602060405180830381600087803b15801561153d57600080fd5b505af1158015611551573d6000803e3d6000fd5b505050506040513d602081101561156757600080fd5b8101908080519060200190929190505050905062030d403a02670de0b6b3a76400000181111561159d576000801b91505061172b565b6000809054906101000a900473ffffffffffffffffffffffffffffffffffffffff1673ffffffffffffffffffffffffffffffffffffffff1663adf59f99828787876040518563ffffffff1660e01b8152600401808481526020018060200180602001838103835285818151815260200191508051906020019080838360005b8381101561163757808201518184015260208101905061161c565b50505050905090810190601f1680156116645780820380516001836020036101000a031916815260200191505b50838103825284818151815260200191508051906020019080838360005b8381101561169d578082015181840152602081019050611682565b50505050905090810190601f1680156116ca5780820380516001836020036101000a031916815260200191505b50955050505050506020604051808303818588803b1580156116eb57600080fd5b505af11580156116ff573d6000803e3d6000fd5b50505050506040513d602081101561171657600080fd5b81019080805190602001909291905050509150505b9392505050565b600080611752731d3b2638a7cc9f2cb3d298a3da7a90b67e5506ed6111d0565b11156117f457731d3b2638a7cc9f2cb3d298a3da7a90b67e5506ed600160006101000a81548173ffffffffffffffffffffffffffffffffffffffff021916908373ffffffffffffffffffffffffffffffffffffffff1602179055506117eb6040518060400160405280600b81526020017f6574685f6d61696e6e6574000000000000000000000000000000000000000000815250611c89565b60019050611c86565b600061181373c03a2615d5efaf5f49f60b7bb6583eaec212fdf16111d0565b11156118b55773c03a2615d5efaf5f49f60b7bb6583eaec212fdf1600160006101000a81548173ffffffffffffffffffffffffffffffffffffffff021916908373ffffffffffffffffffffffffffffffffffffffff1602179055506118ac6040518060400160405280600c81526020017f6574685f726f707374656e330000000000000000000000000000000000000000815250611c89565b60019050611c86565b60006118d473b7a07bcf2ba2f2703b24c0691b5278999c59ac7e6111d0565b11156119765773b7a07bcf2ba2f2703b24c0691b5278999c59ac7e600160006101000a81548173ffffffffffffffffffffffffffffffffffffffff021916908373ffffffffffffffffffffffffffffffffffffffff16021790555061196d6040518060400160405280600981526020017f6574685f6b6f76616e0000000000000000000000000000000000000000000000815250611c89565b60019050611c86565b600061199573146500cfd35b22e4a392fe0adc06de1a1368ed486111d0565b1115611a375773146500cfd35b22e4a392fe0adc06de1a1368ed48600160006101000a81548173ffffffffffffffffffffffffffffffffffffffff021916908373ffffffffffffffffffffffffffffffffffffffff160217905550611a2e6040518060400160405280600b81526020017f6574685f72696e6b656279000000000000000000000000000000000000000000815250611c89565b60019050611c86565b6000611a5673a2998efd205fb9d4b4963afb70778d6354ad3a416111d0565b1115611af85773a2998efd205fb9d4b4963afb70778d6354ad3a41600160006101000a81548173ffffffffffffffffffffffffffffffffffffffff021916908373ffffffffffffffffffffffffffffffffffffffff160217905550611aef6040518060400160405280600a81526020017f6574685f676f65726c6900000000000000000000000000000000000000000000815250611c89565b60019050611c86565b6000611b17736f485c8bf6fc43ea212e93bbf8ce046c7f1cb4756111d0565b1115611b7b57736f485c8bf6fc43ea212e93bbf8ce046c7f1cb475600160006101000a81548173ffffffffffffffffffffffffffffffffffffffff021916908373ffffffffffffffffffffffffffffffffffffffff16021790555060019050611c86565b6000611b9a7320e12a1f859b3feae5fb2a0a32c18f5a65555bbf6111d0565b1115611bfe577320e12a1f859b3feae5fb2a0a32c18f5a65555bbf600160006101000a81548173ffffffffffffffffffffffffffffffffffffffff021916908373ffffffffffffffffffffffffffffffffffffffff16021790555060019050611c86565b6000611c1d7351efaf4c8b3c9afbd5ab9f4bbc82784ab6ef8faa6111d0565b1115611c81577351efaf4c8b3c9afbd5ab9f4bbc82784ab6ef8faa600160006101000a81548173ffffffffffffffffffffffffffffffffffffffff021916908373ffffffffffffffffffffffffffffffffffffffff16021790555060019050611c86565b600090505b90565b8060029080519060200190611c9f929190611ca3565b5050565b828054600181600116156101000203166002900490600052602060002090601f016020900481019282601f10611ce457805160ff1916838001178555611d12565b82800160010185558215611d12579182015b82811115611d11578251825591602001919060010190611cf6565b5b509050611d1f9190611d23565b5090565b611d4591905b80821115611d41576000816000905550600101611d29565b5090565b9056fe596f75206e65656420736f6d656f6e6520746f2070726f706f7365206120636f6e7472616374786d6c2868747470733a2f2f7777772e6675656c65636f6e6f6d792e676f762f77732f726573742f6675656c707269636573292e6675656c5072696365732e726567756c6172596f752063616e27742062757920696e746f2074686520636f6e747261637420696620796f752070726f706f7365642069742e596f75206e65656420746f2070757420696e207468652073616d6520616d6f756e74206f66206574686572a165627a7a723058209918d3744c78435a36289d3ccba6a30bf14b28f547ea447df9f5d507e044d4d10029",
  "source": "pragma solidity >= 0.4.22 < 0.7.0;\n\nimport \"./provableAPI.sol\";\n\ncontract Insurance is usingProvable {\n    //api\n    uint public gasPriceUSD; //TODO: oracle api will dictate this variable\n    bytes32 public provableQueryId;\n    \n    //contract terms\n    uint predictedPrice;\n    uint toPayout; //Total winnings\n    uint public expiryTime; // time the contract will end --> calls oracle query and automatically triggers the API call and payout\n    uint public termAmount; //TODO: temporary variable for MVP -- premium/payout\n    \n    //addresses\n    address payable public policyHolder; // address of the person b eing insured\n    address payable public insurer; //address of the insurer\n    \n    //state of contract\n    bool public proposed;\n    bool public boughtIn;\n    \n    constructor() public{\n        gasPriceUSD = 0;\n        \n        predictedPrice = 0;\n        toPayout = 0;\n        expiryTime = 0;\n        termAmount = 0;\n        \n        policyHolder = address(0);\n        insurer = address(0);\n        \n        proposed = false;\n        boughtIn = false;\n        \n        provableQueryId = bytes32(0);\n    }\n    \n    function proposeContract(uint _predictedPrice, uint _queryDelay) public payable {\n        require(!proposed, \"contract already proposed\");\n        require(msg.value > 0, \"You need to put in some ether\");\n        policyHolder = msg.sender;\n        termAmount = msg.value;\n        toPayout = termAmount;\n        predictedPrice = _predictedPrice;\n        \n        // expiryTime = now + _queryDelay; //TODO: need to figure out how to deal with expire time\n        expiryTime = _queryDelay;\n        \n        proposed = true;\n    }\n    \n    function buyIn() public payable {\n        require(proposed, \"You need someone to propose a contract\");\n        require(msg.value == termAmount, \"You need to put in the same amount of ether\");\n        require(msg.sender != policyHolder, \"You can't buy into the contract if you proposed it.\");\n        insurer = msg.sender;\n        toPayout = toPayout + msg.value;\n        \n        boughtIn = true;\n        triggerOracle();\n    }\n    \n    function triggerOracle() private {\n        // uint queryDelay = expiryTime - now; //TODO\n        uint queryDelay = expiryTime;\n        provableQueryId = provable_query(queryDelay, \"URL\", \"xml(https://www.fueleconomy.gov/ws/rest/fuelprices).fuelPrices.regular\");\n    }\n    \n    function __callback(bytes32 _myid, string memory _result) public {\n        require(msg.sender == provable_cbAddress());\n        gasPriceUSD = parseInt(_result, 2);\n        \n        if (gasPriceUSD > predictedPrice) { //TODO\n            policyHolder.transfer(toPayout);\n        } else {\n            insurer.transfer(toPayout);\n        }\n        clearContract();\n    }\n    \n    function clearContract() private{\n        gasPriceUSD = 0;\n        \n        predictedPrice = 0;\n        toPayout = 0;\n        expiryTime = 0;\n        termAmount = 0;\n        \n        policyHolder = address(0);\n        insurer = address(0);\n        \n        proposed = false;\n        boughtIn = false;\n        \n        provableQueryId = bytes32(0);\n    }\n\n    function killContract() public {\n        require(msg.sender != address(0));\n        require(msg.sender == policyHolder || msg.sender == insurer);\n        if (proposed) {\n            policyHolder.transfer(termAmount);\n        }\n        if (boughtIn) {\n            insurer.transfer(termAmount);\n        }\n        clearContract();\n    }\n}",
  "sourcePath": "/Users/wesleypenn/Documents/2019-2020/CIS233/final-project/final-project-contract/contracts/Insurance.sol",
  "compiler": {
    "name": "solc",
    "version": "0.5.8+commit.23d335f2.Emscripten.clang"
  },
  "schemaVersion": "3.0.16",
  "updatedAt": "2019-11-19T22:41:48.690Z",
  "devdoc": {
    "methods": {}
  },
  "userdoc": {
    "methods": {}
  }
}